:100000000C942A000C9434000C9434000C943400AA
:100010000C9434000C9434000C9434000C94340090
:100020000C9434000C9434000C9434000C94340080
:100030000C9434000C9434000C9434000C94340070
:100040000C9434000C9434000C9434000C94340060
:100050000C94340011241FBECFE5D8E0DEBFCDBF25
:100060000E9436000C948E020C940000CF93DF9314
:10007000CDB7DEB7C454D1090FB6F894DEBF0FBEBA
:10008000CDBF81E390E021E0DC012C9382E390E09E
:1000900021E0FC01208380E090E0A8ECB2E48F87AF
:1000A000988BA98BBA8B20E030E04AE753E46F8548
:1000B000788989899A890E94F9016DA37EA38FA30B
:1000C00098A78DA19EA1AFA1B8A58B8B9C8BAD8B62
:1000D000BE8B20E030E040E85FE36B897C898D894E
:1000E0009E890E94730188232CF481E090E0988F10
:1000F0008F8B54C020E03FEF4FE757E46B897C893A
:100100008D899E890E94F4011816D4F520E030E014
:1001100040E251E46F85788989899A890E94F901C2
:1001200069A77AA78BA79CA789A59AA5ABA5BCA50B
:1001300089A39AA3ABA3BCA369A17AA18BA19CA11B
:100140000E9478016DA77EA78FA798ABADA5BEA52D
:10015000B88FAF8B10C089E190E09A8F898F898D1D
:100160009A8D0197F1F79A8F898F00008F89988D6A
:100170000197988F8F8B8F89988D892B61F719C084
:100180006B897C898D899E890E94780169AB7AABE5
:100190008BAB9CABE9A9FAA9F88FEF8B8F89988D6F
:1001A0009C8F8B8F8B8D9C8D0197F1F79C8F8B8F04
:1001B000000082E390E0DC011C9280E090E0A8EC7B
:1001C000B2E489839A83AB83BC8320E030E04AE7C2
:1001D00053E469817A818B819C810E94F9016DAB26
:1001E0007EAB8FAB98AF8DA99EA9AFA9B8AD8D831B
:1001F0009E83AF83B88720E030E040E85FE36D8105
:100200007E818F8198850E94730188232CF481E080
:1002100090E09A8789875BC020E03FEF4FE757E483
:100220006D817E818F8198850E94F40118160CF0F3
:100230003CC020E030E040E251E469817A818B816A
:100240009C810E94F90169AF7AAF8BAF9CAF89ADF9
:100250009AADABADBCAD8D8F9E8FAF8FB8A36D8DBA
:100260007E8D8F8D98A10E94780121966CAF7DAF15
:100270008EAF9FAF2197ADADBEADBA87A98710C035
:1002800089E190E09C878B878B859C850197F1F7AE
:100290009C878B87000089859A8501979A87898733
:1002A00089859A85892B61F71DC06D817E818F813B
:1002B00098850E94780125966CAF7DAF8EAF9FAF79
:1002C00025972396EEADFFAD2397FA87E9878985B9
:1002D0009A859E878D878D859E850197F1F79E87EC
:1002E0008D870000D3CE0E94A70108F481E0089515
:1002F0000E94D30188F09F5798F0B92F9927B751E2
:10030000B0F0E1F0660F771F881F991F1AF0BA95B9
:10031000C9F714C0B13091F00E94ED01B1E0089529
:100320000C94ED01672F782F8827B85F39F0B93F1B
:10033000CCF3869577956795B395D9F73EF490956C
:100340008095709561957F4F8F4F9F4F0895990FBE
:100350000008550FAA0BE0E8FEEF16161706E8078F
:10036000F907C0F012161306E407F50798F0621BB0
:10037000730B840B950B39F40A2661F0232B242B85
:10038000252B21F408950A2609F4A140A6958FEFA4
:10039000811D811D089557FD9058440F551F59F038
:1003A0005F3F71F04795880F97FB991F61F09F3F62
:1003B00079F087950895121613061406551FF2CF8B
:1003C0004695F1DF08C0161617061806991FF1CFDB
:1003D00086957105610508940895E894BB27662702
:1003E0007727CB0197F908950E94A70108F48FEFB2
:1003F00008950E940C020C947D020E946F0238F056
:100400000E94760220F0952311F00C9466020C9461
:100410006C0211240C94EE010E94CB0170F3959FA5
:10042000C1F3950F50E0551F629FF001729FBB27EB
:10043000F00DB11D639FAA27F00DB11DAA1F649F87
:100440006627B00DA11D661F829F2227B00DA11D3A
:10045000621F739FB00DA11D621F839FA00D611DC0
:10046000221F749F3327A00D611D231F849F600DE1
:10047000211D822F762F6A2F11249F5750409AF00A
:10048000F1F088234AF0EE0FFF1FBB1F661F771F96
:10049000881F91505040A9F79E3F510580F00C9461
:1004A00066020C94EE015F3FE4F3983ED4F3869528
:1004B00077956795B795F795E7959F5FC1F7FE2B01
:1004C000880F911D9695879597F9089597F99F67DD
:1004D00080E870E060E008959FEF80EC08950024CC
:1004E0000A941616170618060906089500240A9499
:1004F00012161306140605060895092E0394000C1F
:1005000011F4882352F0BB0F40F4BF2B11F460FFAD
:1005100004C06F5F7F4F8F4F9F4F0895F894FFCFB8
:00000001FF
